{
  "contractName": "HospitalRegistry",
  "abi": [
    {
      "inputs": [],
      "stateMutability": "nonpayable",
      "type": "constructor"
    },
    {
      "anonymous": false,
      "inputs": [
        {
          "indexed": false,
          "internalType": "uint256",
          "name": "hospitalId",
          "type": "uint256"
        },
        {
          "indexed": false,
          "internalType": "string",
          "name": "name",
          "type": "string"
        },
        {
          "indexed": false,
          "internalType": "string",
          "name": "city",
          "type": "string"
        },
        {
          "indexed": false,
          "internalType": "address",
          "name": "walletAddress",
          "type": "address"
        },
        {
          "indexed": false,
          "internalType": "uint256",
          "name": "timestamp",
          "type": "uint256"
        }
      ],
      "name": "HospitalRegistered",
      "type": "event"
    },
    {
      "inputs": [],
      "name": "hospitalCount",
      "outputs": [
        {
          "internalType": "uint256",
          "name": "",
          "type": "uint256"
        }
      ],
      "stateMutability": "view",
      "type": "function",
      "constant": true
    },
    {
      "inputs": [
        {
          "internalType": "address",
          "name": "",
          "type": "address"
        }
      ],
      "name": "hospitals",
      "outputs": [
        {
          "internalType": "uint256",
          "name": "hospitalId",
          "type": "uint256"
        },
        {
          "internalType": "string",
          "name": "name",
          "type": "string"
        },
        {
          "internalType": "string",
          "name": "location",
          "type": "string"
        },
        {
          "internalType": "string",
          "name": "city",
          "type": "string"
        },
        {
          "internalType": "string",
          "name": "state",
          "type": "string"
        },
        {
          "internalType": "string",
          "name": "pincode",
          "type": "string"
        },
        {
          "internalType": "string",
          "name": "licenseNumber",
          "type": "string"
        },
        {
          "internalType": "address",
          "name": "walletAddress",
          "type": "address"
        },
        {
          "internalType": "string",
          "name": "status",
          "type": "string"
        },
        {
          "internalType": "uint256",
          "name": "timestamp",
          "type": "uint256"
        }
      ],
      "stateMutability": "view",
      "type": "function",
      "constant": true
    },
    {
      "inputs": [],
      "name": "insurer",
      "outputs": [
        {
          "internalType": "address",
          "name": "",
          "type": "address"
        }
      ],
      "stateMutability": "view",
      "type": "function",
      "constant": true
    },
    {
      "inputs": [
        {
          "internalType": "address",
          "name": "",
          "type": "address"
        }
      ],
      "name": "isRegistered",
      "outputs": [
        {
          "internalType": "bool",
          "name": "",
          "type": "bool"
        }
      ],
      "stateMutability": "view",
      "type": "function",
      "constant": true
    },
    {
      "inputs": [
        {
          "internalType": "string",
          "name": "_name",
          "type": "string"
        },
        {
          "internalType": "string",
          "name": "_location",
          "type": "string"
        },
        {
          "internalType": "string",
          "name": "_city",
          "type": "string"
        },
        {
          "internalType": "string",
          "name": "_state",
          "type": "string"
        },
        {
          "internalType": "string",
          "name": "_pincode",
          "type": "string"
        },
        {
          "internalType": "string",
          "name": "_licenseNumber",
          "type": "string"
        },
        {
          "internalType": "address",
          "name": "_walletAddress",
          "type": "address"
        }
      ],
      "name": "registerHospital",
      "outputs": [],
      "stateMutability": "nonpayable",
      "type": "function"
    },
    {
      "inputs": [
        {
          "internalType": "address",
          "name": "_walletAddress",
          "type": "address"
        }
      ],
      "name": "getHospital",
      "outputs": [
        {
          "components": [
            {
              "internalType": "uint256",
              "name": "hospitalId",
              "type": "uint256"
            },
            {
              "internalType": "string",
              "name": "name",
              "type": "string"
            },
            {
              "internalType": "string",
              "name": "location",
              "type": "string"
            },
            {
              "internalType": "string",
              "name": "city",
              "type": "string"
            },
            {
              "internalType": "string",
              "name": "state",
              "type": "string"
            },
            {
              "internalType": "string",
              "name": "pincode",
              "type": "string"
            },
            {
              "internalType": "string",
              "name": "licenseNumber",
              "type": "string"
            },
            {
              "internalType": "address",
              "name": "walletAddress",
              "type": "address"
            },
            {
              "internalType": "string",
              "name": "status",
              "type": "string"
            },
            {
              "internalType": "uint256",
              "name": "timestamp",
              "type": "uint256"
            }
          ],
          "internalType": "struct HospitalRegistry.Hospital",
          "name": "",
          "type": "tuple"
        }
      ],
      "stateMutability": "view",
      "type": "function",
      "constant": true
    },
    {
      "inputs": [
        {
          "internalType": "address",
          "name": "_walletAddress",
          "type": "address"
        }
      ],
      "name": "checkHospital",
      "outputs": [
        {
          "internalType": "bool",
          "name": "",
          "type": "bool"
        }
      ],
      "stateMutability": "view",
      "type": "function",
      "constant": true
    }
  ],
  "bytecode": "0x6080806040523461002d576000600181905580546001600160a01b0319163317905561124d90816100338239f35b600080fdfe608080604052600436101561001357600080fd5b60003560e01c90816307316e7014611013575080632ed0e9cb14610483578063350dadb714610465578063c3c5a54714610426578063c49b09b5146101ca578063dbc837c5146101a15763f093cf801461006c57600080fd5b3461019c57602036600319011261019c576001600160a01b038061008e61104e565b166000526002602052604060002090815490600183016100ad90611171565b926100ba60028201611171565b916100c760038301611171565b906100d460048401611171565b6100e060058501611171565b906100ed60068601611171565b92600786015416936008860161010290611171565b956009015496604051998a998a526101408060208c01528a01610124916110f7565b89810360408b0152610135916110f7565b88810360608a0152610146916110f7565b8781036080890152610157916110f7565b86810360a0880152610168916110f7565b85810360c0870152610179916110f7565b9060e0850152838103610100850152610191916110f7565b906101208301520390f35b600080fd5b3461019c57600036600319011261019c576000546040516001600160a01b039091168152602090f35b3461019c57602036600319011261019c576101e361104e565b60006101206040516101f481611064565b828152606060208201526060604082015260608082015260606080820152606060a0820152606060c08201528260e08201526060610100820152015260018060a01b031680600052600360205260ff60406000205416156103e1576000526002602052604060002060096040519161026b83611064565b8054835261027b60018201611171565b602084015261028c60028201611171565b604084015261029d60038201611171565b60608401526102ae60048201611171565b60808401526102bf60058201611171565b60a08401526102d060068201611171565b60c084015260078101546001600160a01b031660e08401526102f460088201611171565b61010084015201546101208201526040518091602082528051602083015260208101516101206103d6610335610140938460408801526101608701906110f7565b6103ae61039a61038661037261035e60408a015195601f19968c606089828503019101526110f7565b60608a0151868c83030160808d01526110f7565b6080890151858b83030160a08c01526110f7565b60a0880151848a83030160c08b01526110f7565b60c0870151838983030160e08a01526110f7565b9060018060a01b0360e0870151166101008801526101008601519087830301848801526110f7565b920151908301520390f35b60405162461bcd60e51b815260206004820152601760248201527f486f73706974616c206e6f7420726567697374657265640000000000000000006044820152606490fd5b3461019c57602036600319011261019c576001600160a01b0361044761104e565b166000526003602052602060ff604060002054166040519015158152f35b3461019c57600036600319011261019c576020600154604051908152f35b3461019c5760e036600319011261019c576004356001600160401b03811161019c576104b39036906004016110a1565b6024356001600160401b03811161019c576104d29036906004016110a1565b906044356001600160401b03811161019c576104f29036906004016110a1565b6064356001600160401b03811161019c576105119036906004016110a1565b6084356001600160401b03811161019c576105309036906004016110a1565b60a4356001600160401b03811161019c5761054f9036906004016110a1565b60c435929091906001600160a01b038416840361019c576000546001600160a01b03163303610fce576001600160a01b03841660009081526003602052604090205460ff16610f8957600154966000198814610f7357600188016001556001604051986105bb8a611064565b0188528660208901526040880152846060880152608087015260a086015260c085015260018060a01b03811660e08501526040518060408101106001600160401b03604083011117610a7d5760408101604052600681526541637469766560d01b60208201526101008501524261012085015260018060a01b038116600052600260205260406000208451815560208501518051906001600160401b038211610a7d57819061066d6001850154611137565b601f8111610f20575b50602090601f8311600114610eae57600092610ea3575b50508160011b916000199060031b1c19161760018201555b60408501518051906001600160401b038211610a7d5781906106ca6002850154611137565b601f8111610e50575b50602090601f8311600114610dde57600092610dd3575b50508160011b916000199060031b1c19161760028201555b60608501518051906001600160401b038211610a7d5781906107276003850154611137565b601f8111610d80575b50602090601f8311600114610d0e57600092610d03575b50508160011b916000199060031b1c19161760038201555b60808501518051906001600160401b038211610a7d5781906107846004850154611137565b601f8111610cb0575b50602090601f8311600114610c3e57600092610c33575b50508160011b916000199060031b1c19161760048201555b60a08501518051906001600160401b038211610a7d5781906107e16005850154611137565b601f8111610be0575b50602090601f8311600114610b6e57600092610b63575b50508160011b916000199060031b1c19161760058201555b60c08501518051906001600160401b038211610a7d57819061083e6006850154611137565b601f8111610b10575b50602090601f8311600114610a9e57600092610a93575b50508160011b916000199060031b1c19161760068201555b6007810160018060a01b0360e0870151166bffffffffffffffffffffffff60a01b8254161790556101008501519485516001600160401b038111610a7d576108c16008840154611137565b601f8111610a36575b506020601f82116001146109a0579181610120926009947fdb747e1fe98df8d3a1970d8c2599365d8a61f804943b4c866584e1baae6b99da9a600092610995575b50508160011b916000199060031b1c19161760088501555b015191015560018060a01b03811660005260036020526040600020600160ff1982541617905561097a6001549261096c604051958695865260a0602087015260a08601906110f7565b9084820360408601526110f7565b6001600160a01b0390911660608301524260808301520390a1005b015190508a8061090b565b6008840160005260206000209760005b601f1984168110610a1e5750827fdb747e1fe98df8d3a1970d8c2599365d8a61f804943b4c866584e1baae6b99da996009959360019361012096601f19811610610a05575b505050811b016008850155610923565b015160001960f88460031b161c191690558a80806109f5565b828201518a55600190990198602092830192016109b0565b600884016000526020600020601f830160051c810160208410610a76575b601f830160051c82018110610a6a5750506108ca565b60008155600101610a54565b5080610a54565b634e487b7160e01b600052604160045260246000fd5b01519050878061085e565b9250600684016000526020600020906000935b601f1984168510610af5576001945083601f19811610610adc575b505050811b016006820155610876565b015160001960f88460031b161c19169055878080610acc565b81810151835560209485019460019093019290910190610ab1565b909150600684016000526020600020601f840160051c810160208510610b5c575b90849392915b601f830160051c82018110610b4d575050610847565b60008155859450600101610b37565b5080610b31565b015190508780610801565b9250600584016000526020600020906000935b601f1984168510610bc5576001945083601f19811610610bac575b505050811b016005820155610819565b015160001960f88460031b161c19169055878080610b9c565b81810151835560209485019460019093019290910190610b81565b909150600584016000526020600020601f840160051c810160208510610c2c575b90849392915b601f830160051c82018110610c1d5750506107ea565b60008155859450600101610c07565b5080610c01565b0151905087806107a4565b9250600484016000526020600020906000935b601f1984168510610c95576001945083601f19811610610c7c575b505050811b0160048201556107bc565b015160001960f88460031b161c19169055878080610c6c565b81810151835560209485019460019093019290910190610c51565b909150600484016000526020600020601f840160051c810160208510610cfc575b90849392915b601f830160051c82018110610ced57505061078d565b60008155859450600101610cd7565b5080610cd1565b015190508780610747565b9250600384016000526020600020906000935b601f1984168510610d65576001945083601f19811610610d4c575b505050811b01600382015561075f565b015160001960f88460031b161c19169055878080610d3c565b81810151835560209485019460019093019290910190610d21565b909150600384016000526020600020601f840160051c810160208510610dcc575b90849392915b601f830160051c82018110610dbd575050610730565b60008155859450600101610da7565b5080610da1565b0151905087806106ea565b9250600284016000526020600020906000935b601f1984168510610e35576001945083601f19811610610e1c575b505050811b016002820155610702565b015160001960f88460031b161c19169055878080610e0c565b81810151835560209485019460019093019290910190610df1565b909150600284016000526020600020601f840160051c810160208510610e9c575b90849392915b601f830160051c82018110610e8d5750506106d3565b60008155859450600101610e77565b5080610e71565b01519050878061068d565b9250600184016000526020600020906000935b601f1984168510610f05576001945083601f19811610610eec575b505050811b0160018201556106a5565b015160001960f88460031b161c19169055878080610edc565b81810151835560209485019460019093019290910190610ec1565b909150600184016000526020600020601f840160051c810160208510610f6c575b90849392915b601f830160051c82018110610f5d575050610676565b60008155859450600101610f47565b5080610f41565b634e487b7160e01b600052601160045260246000fd5b60405162461bcd60e51b815260206004820152601b60248201527f486f73706974616c20616c7265616479207265676973746572656400000000006044820152606490fd5b60405162461bcd60e51b815260206004820152601860248201527f4f6e6c7920696e73757265722063616e20646f207468697300000000000000006044820152606490fd5b3461019c57602036600319011261019c576020906001600160a01b0361103761104e565b166000526003825260ff6040600020541615158152f35b600435906001600160a01b038216820361019c57565b61014081019081106001600160401b03821117610a7d57604052565b90601f801991011681019081106001600160401b03821117610a7d57604052565b81601f8201121561019c578035906001600160401b038211610a7d57604051926110d5601f8401601f191660200185611080565b8284526020838301011161019c57816000926020809301838601378301015290565b919082519283825260005b848110611123575050826000602080949584010152601f8019910116010190565b602081830181015184830182015201611102565b90600182811c92168015611167575b602083101461115157565b634e487b7160e01b600052602260045260246000fd5b91607f1691611146565b906040519182600082549261118584611137565b9081845260019485811690816000146111f457506001146111b1575b50506111af92500383611080565b565b9093915060005260209081600020936000915b8183106111dc5750506111af935082010138806111a1565b855488840185015294850194879450918301916111c4565b9150506111af94506020925060ff191682840152151560051b82010138806111a156fea2646970667358221220673504ea6cf0374576331eb1347edb67c8bfaa798e4762ece9920cda660a6c4464736f6c63430008130033",
  "immutableReferences": {},
  "source": "// SPDX-License-Identifier: MIT\r\npragma solidity ^0.8.19;\r\n\r\ncontract HospitalRegistry {\r\n\r\n    address public insurer;\r\n\r\n    struct Hospital {\r\n        uint hospitalId;\r\n        string name;\r\n        string location;\r\n        string city;\r\n        string state;\r\n        string pincode;\r\n        string licenseNumber;\r\n        address walletAddress;\r\n        string status;\r\n        uint timestamp;\r\n    }\r\n\r\n    uint public hospitalCount = 0;\r\n\r\n    mapping(address => Hospital) public hospitals;\r\n    mapping(address => bool) public isRegistered;\r\n\r\n    event HospitalRegistered(\r\n        uint hospitalId,\r\n        string name,\r\n        string city,\r\n        address walletAddress,\r\n        uint timestamp\r\n    );\r\n\r\n    modifier onlyInsurer() {\r\n        require(\r\n            msg.sender == insurer,\r\n            \"Only insurer can do this\"\r\n        );\r\n        _;\r\n    }\r\n\r\n    constructor() {\r\n        insurer = msg.sender;\r\n    }\r\n\r\n    function registerHospital(\r\n        string memory _name,\r\n        string memory _location,\r\n        string memory _city,\r\n        string memory _state,\r\n        string memory _pincode,\r\n        string memory _licenseNumber,\r\n        address _walletAddress\r\n    ) public onlyInsurer {\r\n\r\n        require(\r\n            !isRegistered[_walletAddress],\r\n            \"Hospital already registered\"\r\n        );\r\n\r\n        hospitalCount++;\r\n\r\n        hospitals[_walletAddress] = Hospital(\r\n            hospitalCount,\r\n            _name,\r\n            _location,\r\n            _city,\r\n            _state,\r\n            _pincode,\r\n            _licenseNumber,\r\n            _walletAddress,\r\n            \"Active\",\r\n            block.timestamp\r\n        );\r\n\r\n        isRegistered[_walletAddress] = true;\r\n\r\n        emit HospitalRegistered(\r\n            hospitalCount,\r\n            _name,\r\n            _city,\r\n            _walletAddress,\r\n            block.timestamp\r\n        );\r\n    }\r\n\r\n    function getHospital(address _walletAddress)\r\n        public\r\n        view\r\n        returns (Hospital memory)\r\n    {\r\n        require(\r\n            isRegistered[_walletAddress],\r\n            \"Hospital not registered\"\r\n        );\r\n        return hospitals[_walletAddress];\r\n    }\r\n\r\n    function checkHospital(address _walletAddress)\r\n        public\r\n        view\r\n        returns (bool)\r\n    {\r\n        return isRegistered[_walletAddress];\r\n    }\r\n}",
  "sourcePath": "E:\\medinsure\\contracts\\HospitalRegistry.sol",
  "compiler": {
    "name": "solc",
    "version": "0.8.19+commit.7dd6d404.Emscripten.clang"
  },
  "schemaVersion": "3.4.16",
  "updatedAt": "2026-02-25T17:11:57.184Z",
  "networkType": "ethereum",
  "devdoc": {
    "kind": "dev",
    "methods": {},
    "version": 1
  },
  "userdoc": {
    "kind": "user",
    "methods": {},
    "version": 1
  }
}