{
  "contractName": "PolicyContract",
  "abi": [
    {
      "inputs": [],
      "stateMutability": "nonpayable",
      "type": "constructor"
    },
    {
      "anonymous": false,
      "inputs": [
        {
          "indexed": false,
          "internalType": "address",
          "name": "patient",
          "type": "address"
        },
        {
          "indexed": false,
          "internalType": "uint256",
          "name": "amount",
          "type": "uint256"
        },
        {
          "indexed": false,
          "internalType": "uint256",
          "name": "monthNumber",
          "type": "uint256"
        }
      ],
      "name": "MonthlyPremiumPaid",
      "type": "event"
    },
    {
      "anonymous": false,
      "inputs": [
        {
          "indexed": false,
          "internalType": "uint256",
          "name": "policyId",
          "type": "uint256"
        },
        {
          "indexed": false,
          "internalType": "string",
          "name": "policyName",
          "type": "string"
        }
      ],
      "name": "PolicyCreated",
      "type": "event"
    },
    {
      "anonymous": false,
      "inputs": [
        {
          "indexed": false,
          "internalType": "address",
          "name": "patient",
          "type": "address"
        }
      ],
      "name": "PolicyReactivated",
      "type": "event"
    },
    {
      "anonymous": false,
      "inputs": [
        {
          "indexed": false,
          "internalType": "address",
          "name": "patient",
          "type": "address"
        },
        {
          "indexed": false,
          "internalType": "uint256",
          "name": "policyId",
          "type": "uint256"
        },
        {
          "indexed": false,
          "internalType": "string",
          "name": "policyName",
          "type": "string"
        }
      ],
      "name": "PolicySubscribed",
      "type": "event"
    },
    {
      "anonymous": false,
      "inputs": [
        {
          "indexed": false,
          "internalType": "address",
          "name": "patient",
          "type": "address"
        },
        {
          "indexed": false,
          "internalType": "string",
          "name": "reason",
          "type": "string"
        }
      ],
      "name": "PolicySuspended",
      "type": "event"
    },
    {
      "inputs": [
        {
          "internalType": "uint256",
          "name": "",
          "type": "uint256"
        }
      ],
      "name": "allPolicyIds",
      "outputs": [
        {
          "internalType": "uint256",
          "name": "",
          "type": "uint256"
        }
      ],
      "stateMutability": "view",
      "type": "function",
      "constant": true
    },
    {
      "inputs": [
        {
          "internalType": "address",
          "name": "",
          "type": "address"
        }
      ],
      "name": "hasSubscription",
      "outputs": [
        {
          "internalType": "bool",
          "name": "",
          "type": "bool"
        }
      ],
      "stateMutability": "view",
      "type": "function",
      "constant": true
    },
    {
      "inputs": [],
      "name": "insurer",
      "outputs": [
        {
          "internalType": "address",
          "name": "",
          "type": "address"
        }
      ],
      "stateMutability": "view",
      "type": "function",
      "constant": true
    },
    {
      "inputs": [
        {
          "internalType": "address",
          "name": "",
          "type": "address"
        },
        {
          "internalType": "uint256",
          "name": "",
          "type": "uint256"
        }
      ],
      "name": "paymentHistory",
      "outputs": [
        {
          "internalType": "uint256",
          "name": "amount",
          "type": "uint256"
        },
        {
          "internalType": "uint256",
          "name": "paidOn",
          "type": "uint256"
        },
        {
          "internalType": "uint256",
          "name": "monthNumber",
          "type": "uint256"
        },
        {
          "internalType": "string",
          "name": "status",
          "type": "string"
        }
      ],
      "stateMutability": "view",
      "type": "function",
      "constant": true
    },
    {
      "inputs": [
        {
          "internalType": "uint256",
          "name": "",
          "type": "uint256"
        }
      ],
      "name": "policies",
      "outputs": [
        {
          "internalType": "uint256",
          "name": "policyId",
          "type": "uint256"
        },
        {
          "internalType": "string",
          "name": "policyName",
          "type": "string"
        },
        {
          "internalType": "uint256",
          "name": "coverageLimit",
          "type": "uint256"
        },
        {
          "internalType": "uint256",
          "name": "premiumAmount",
          "type": "uint256"
        },
        {
          "internalType": "uint256",
          "name": "validityPeriod",
          "type": "uint256"
        },
        {
          "internalType": "string",
          "name": "ipfsCID",
          "type": "string"
        },
        {
          "internalType": "string",
          "name": "covered",
          "type": "string"
        },
        {
          "internalType": "string",
          "name": "excluded",
          "type": "string"
        },
        {
          "internalType": "string",
          "name": "status",
          "type": "string"
        },
        {
          "internalType": "uint256",
          "name": "timestamp",
          "type": "uint256"
        }
      ],
      "stateMutability": "view",
      "type": "function",
      "constant": true
    },
    {
      "inputs": [],
      "name": "policyCount",
      "outputs": [
        {
          "internalType": "uint256",
          "name": "",
          "type": "uint256"
        }
      ],
      "stateMutability": "view",
      "type": "function",
      "constant": true
    },
    {
      "inputs": [],
      "name": "subscriptionCount",
      "outputs": [
        {
          "internalType": "uint256",
          "name": "",
          "type": "uint256"
        }
      ],
      "stateMutability": "view",
      "type": "function",
      "constant": true
    },
    {
      "inputs": [
        {
          "internalType": "address",
          "name": "",
          "type": "address"
        }
      ],
      "name": "subscriptions",
      "outputs": [
        {
          "internalType": "address",
          "name": "patientAddress",
          "type": "address"
        },
        {
          "internalType": "uint256",
          "name": "policyId",
          "type": "uint256"
        },
        {
          "internalType": "string",
          "name": "policyName",
          "type": "string"
        },
        {
          "internalType": "uint256",
          "name": "premiumAmount",
          "type": "uint256"
        },
        {
          "internalType": "uint256",
          "name": "totalPaid",
          "type": "uint256"
        },
        {
          "internalType": "uint256",
          "name": "startDate",
          "type": "uint256"
        },
        {
          "internalType": "uint256",
          "name": "endDate",
          "type": "uint256"
        },
        {
          "internalType": "uint256",
          "name": "nextDueDate",
          "type": "uint256"
        },
        {
          "internalType": "uint256",
          "name": "monthsPaid",
          "type": "uint256"
        },
        {
          "internalType": "string",
          "name": "subscriptionStatus",
          "type": "string"
        },
        {
          "internalType": "string",
          "name": "paymentStatus",
          "type": "string"
        },
        {
          "internalType": "uint256",
          "name": "timestamp",
          "type": "uint256"
        }
      ],
      "stateMutability": "view",
      "type": "function",
      "constant": true
    },
    {
      "inputs": [
        {
          "components": [
            {
              "internalType": "string",
              "name": "policyName",
              "type": "string"
            },
            {
              "internalType": "uint256",
              "name": "coverageLimit",
              "type": "uint256"
            },
            {
              "internalType": "uint256",
              "name": "premiumAmount",
              "type": "uint256"
            },
            {
              "internalType": "uint256",
              "name": "validityPeriod",
              "type": "uint256"
            },
            {
              "internalType": "string",
              "name": "ipfsCID",
              "type": "string"
            },
            {
              "internalType": "string",
              "name": "covered",
              "type": "string"
            },
            {
              "internalType": "string",
              "name": "excluded",
              "type": "string"
            }
          ],
          "internalType": "struct PolicyContract.PolicyInput",
          "name": "input",
          "type": "tuple"
        }
      ],
      "name": "createPolicy",
      "outputs": [],
      "stateMutability": "nonpayable",
      "type": "function"
    },
    {
      "inputs": [
        {
          "internalType": "uint256",
          "name": "policyId",
          "type": "uint256"
        }
      ],
      "name": "subscribePolicy",
      "outputs": [],
      "stateMutability": "payable",
      "type": "function",
      "payable": true
    },
    {
      "inputs": [],
      "name": "payMonthlyPremium",
      "outputs": [],
      "stateMutability": "payable",
      "type": "function",
      "payable": true
    },
    {
      "inputs": [
        {
          "internalType": "address",
          "name": "patient",
          "type": "address"
        }
      ],
      "name": "checkPaymentStatus",
      "outputs": [],
      "stateMutability": "nonpayable",
      "type": "function"
    },
    {
      "inputs": [],
      "name": "getAllPolicies",
      "outputs": [
        {
          "internalType": "uint256[]",
          "name": "",
          "type": "uint256[]"
        }
      ],
      "stateMutability": "view",
      "type": "function",
      "constant": true
    },
    {
      "inputs": [
        {
          "internalType": "uint256",
          "name": "policyId",
          "type": "uint256"
        }
      ],
      "name": "getPolicy",
      "outputs": [
        {
          "components": [
            {
              "internalType": "uint256",
              "name": "policyId",
              "type": "uint256"
            },
            {
              "internalType": "string",
              "name": "policyName",
              "type": "string"
            },
            {
              "internalType": "uint256",
              "name": "coverageLimit",
              "type": "uint256"
            },
            {
              "internalType": "uint256",
              "name": "premiumAmount",
              "type": "uint256"
            },
            {
              "internalType": "uint256",
              "name": "validityPeriod",
              "type": "uint256"
            },
            {
              "internalType": "string",
              "name": "ipfsCID",
              "type": "string"
            },
            {
              "internalType": "string",
              "name": "covered",
              "type": "string"
            },
            {
              "internalType": "string",
              "name": "excluded",
              "type": "string"
            },
            {
              "internalType": "string",
              "name": "status",
              "type": "string"
            },
            {
              "internalType": "uint256",
              "name": "timestamp",
              "type": "uint256"
            }
          ],
          "internalType": "struct PolicyContract.Policy",
          "name": "",
          "type": "tuple"
        }
      ],
      "stateMutability": "view",
      "type": "function",
      "constant": true
    },
    {
      "inputs": [
        {
          "internalType": "address",
          "name": "patient",
          "type": "address"
        }
      ],
      "name": "getSubscription",
      "outputs": [
        {
          "components": [
            {
              "internalType": "address",
              "name": "patientAddress",
              "type": "address"
            },
            {
              "internalType": "uint256",
              "name": "policyId",
              "type": "uint256"
            },
            {
              "internalType": "string",
              "name": "policyName",
              "type": "string"
            },
            {
              "internalType": "uint256",
              "name": "premiumAmount",
              "type": "uint256"
            },
            {
              "internalType": "uint256",
              "name": "totalPaid",
              "type": "uint256"
            },
            {
              "internalType": "uint256",
              "name": "startDate",
              "type": "uint256"
            },
            {
              "internalType": "uint256",
              "name": "endDate",
              "type": "uint256"
            },
            {
              "internalType": "uint256",
              "name": "nextDueDate",
              "type": "uint256"
            },
            {
              "internalType": "uint256",
              "name": "monthsPaid",
              "type": "uint256"
            },
            {
              "internalType": "string",
              "name": "subscriptionStatus",
              "type": "string"
            },
            {
              "internalType": "string",
              "name": "paymentStatus",
              "type": "string"
            },
            {
              "internalType": "uint256",
              "name": "timestamp",
              "type": "uint256"
            }
          ],
          "internalType": "struct PolicyContract.Subscription",
          "name": "",
          "type": "tuple"
        }
      ],
      "stateMutability": "view",
      "type": "function",
      "constant": true
    },
    {
      "inputs": [
        {
          "internalType": "address",
          "name": "patient",
          "type": "address"
        }
      ],
      "name": "getPaymentHistory",
      "outputs": [
        {
          "components": [
            {
              "internalType": "uint256",
              "name": "amount",
              "type": "uint256"
            },
            {
              "internalType": "uint256",
              "name": "paidOn",
              "type": "uint256"
            },
            {
              "internalType": "uint256",
              "name": "monthNumber",
              "type": "uint256"
            },
            {
              "internalType": "string",
              "name": "status",
              "type": "string"
            }
          ],
          "internalType": "struct PolicyContract.PaymentRecord[]",
          "name": "",
          "type": "tuple[]"
        }
      ],
      "stateMutability": "view",
      "type": "function",
      "constant": true
    },
    {
      "inputs": [
        {
          "internalType": "address",
          "name": "patient",
          "type": "address"
        }
      ],
      "name": "checkActivePolicy",
      "outputs": [
        {
          "internalType": "bool",
          "name": "",
          "type": "bool"
        }
      ],
      "stateMutability": "view",
      "type": "function",
      "constant": true
    },
    {
      "inputs": [
        {
          "internalType": "address",
          "name": "patient",
          "type": "address"
        }
      ],
      "name": "isPaymentDue",
      "outputs": [
        {
          "internalType": "bool",
          "name": "",
          "type": "bool"
        }
      ],
      "stateMutability": "view",
      "type": "function",
      "constant": true
    },
    {
      "inputs": [
        {
          "internalType": "address",
          "name": "patient",
          "type": "address"
        }
      ],
      "name": "getDaysUntilDue",
      "outputs": [
        {
          "internalType": "uint256",
          "name": "",
          "type": "uint256"
        }
      ],
      "stateMutability": "view",
      "type": "function",
      "constant": true
    }
  ],
  "bytecode": "0x6080806040523461002857600080546001600160a01b03191633179055612487908161002e8239f35b600080fdfe608080604052600436101561001357600080fd5b60003560e01c9081630cbebc241461199057508063173b6d90146119725780632b07fce3146117925780633c0ebb77146117675780633d1e0c79146110f55780633fa25c9c14610e01578063457e552114610d4b5780634d5b8436146106795780637514e80e1461046f5780637da2ba7c1461051257806387afb99b146104db57806397ad7e02146104ae578063ba9732461461046f578063bee42c4e1461044c578063cc38b477146103b1578063d3e8948314610267578063dbc837c51461023e578063de54d429146102205763f046395a146100f057600080fd5b3461021b57602036600319011261021b576001600160a01b0380610112611b8e565b166000526004602052604060002090815416600182015491604051908180600283019061013e91611d6c565b036101499083611c52565b60038101546004820154906005830154600684015460078501549060088601549260405195868060098a019061017e91611d6c565b036101899088611c52565b604051978861019b81600a8401611d6c565b036101a6908a611c52565b600b0154986040519b8c9b8c5260208c01526101808060408d01528b016101cc91611ba4565b9560608b015260808a015260a089015260c088015260e08701526101008601528481036101208601526101fe91611ba4565b83810361014085015261021091611ba4565b906101608301520390f35b600080fd5b3461021b57600036600319011261021b576020600154604051908152f35b3461021b57600036600319011261021b576000546040516001600160a01b039091168152602090f35b3461021b57602036600319011261021b57600435600052600360205260406000208054604051918280600183019061029e91611d6c565b036102a99084611c52565b600281015490600381015491600482015490604051808060058601906102ce91611d6c565b036102d99082611c52565b60405191826102eb8160068801611d6c565b036102f69084611c52565b60405193846103088160078901611d6c565b036103139086611c52565b60405195866103258160088401611d6c565b036103309088611c52565b6009015496604051998a998a526101408060208c01528a0161035191611ba4565b9260408a01526060890152608088015286810360a088015261037291611ba4565b85810360c087015261038391611ba4565b84810360e086015261039491611ba4565b8381036101008501526103a691611ba4565b906101208301520390f35b3461021b57604036600319011261021b576103ca611b8e565b6001600160a01b0316600090815260056020526040902080546024359081101561021b576103f791611d16565b508054610448600360018401549361042560028201549161041e6040518095819301611d6c565b0383611c52565b604051948594855260208501526040840152608060608401526080830190611ba4565b0390f35b3461021b57602036600319011261021b5761046d610468611b8e565b612071565b005b3461021b57602036600319011261021b576001600160a01b03610490611b8e565b166000526006602052602060ff604060002054166040519015158152f35b3461021b57602036600319011261021b5760206104d16104cc611b8e565b612250565b6040519015158152f35b3461021b57602036600319011261021b5760043560075481101561021b57610504602091611cc9565b90546040519160031b1c8152f35b3461021b5760208060031936011261021b576001600160a01b03610534611b8e565b166000526005815260406000208054906001600160401b03821161066357829060405192610567838260051b0185611c52565b8084528284018092600052836000206000915b8383106106075750505050604051918083019381845251809452604083019360408160051b85010192916000955b8287106105b55785850386f35b9091929382806105f7600193603f198a820301865288518051825283810151848301526040810151604083015260608091015191608080928201520190611ba4565b96019201960195929190926105a8565b60048660019260409998995161061c81611c1c565b8554815284860154838201526002860154604082015260405161064d816106468160038b01611d6c565b0382611c52565b606082015281520192019201919095949561057a565b634e487b7160e01b600052604160045260246000fd5b3461021b5760031960203682011261021b57600435906001600160401b03821161021b5760e090823603011261021b5760405160e081018181106001600160401b038211176106635760405281600401356001600160401b03811161021b576106e89060043691850101611c73565b8152602081019160248101358352604082016044820135815260608301916064810135835260848101356001600160401b03811161021b576107309060043691840101611c73565b906080850191825260a48101356001600160401b03811161021b5761075b9060043691840101611c73565b9060a0860191825260c4810135906001600160401b03821161021b5760046107869236920101611c73565b60c086019081526000549092906001600160a01b03163303610d0e576107ad600154611e02565b9485600155865197519451905191519251935194604051986107ce8a611c00565b878a5260208a015260408901526060880152608087015260a086015260c085015260e08401526107fc611e11565b61010084015242610120840152600052600360205260406000208251815560208301519283516001600160401b0381116106635761084a816108416001860154611d32565b60018601611e74565b6020601f8211600114610c9f578192939495600092610c94575b50508160011b916000199060031b1c19161760018301555b60408101516002830155606081015160038301556080810151600483015560a08101519283516001600160401b038111610663576108ca816108c16005870154611d32565b60058701611e74565b6020601f8211600114610c25578192939495600092610c1a575b50508160011b916000199060031b1c19161760058401555b60c08201519283516001600160401b0381116106635761092c816109236006850154611d32565b60068501611e74565b6020601f8211600114610bab578192939495600092610ba0575b50508160011b916000199060031b1c19161760068201555b60e08301519283516001600160401b0381116106635761098e816109856007860154611d32565b60078601611e74565b6020601f8211600114610b31578192939495600092610b26575b50508160011b916000199060031b1c19161760078301555b600882016101008201518051906001600160401b038211610663576109ef826109e98554611d32565b85611e74565b602090601f8311600114610ab7579180610120949260099694600092610aac575b50508160011b916000199060031b1c19161790555b01519101556001549060075491600160401b83101561066357610a6f8360017f80968e0cf0f9fbad1f441d6bcbc63de0fe2c2a21dcbd37b22b46e61c7695031f9501600755611cc9565b819291549060031b91821b91600019901b1916179055600154905190610aa76040519283928352604060208401526040830190611ba4565b0390a1005b015190508880610a10565b90601f198316918460005260206000209260005b818110610b0e575092600192859260099896610120989610610af5575b505050811b019055610a25565b015160001960f88460031b161c19169055888080610ae8565b92936020600181928786015181550195019301610acb565b0151905085806109a8565b6007840160005260206000209060005b601f1984168110610b88575060019394959683601f19811610610b6f575b505050811b0160078301556109c0565b015160001960f88460031b161c19169055858080610b5f565b9091602060018192858b015181550193019101610b41565b015190508580610946565b6006830160005260206000209060005b601f1984168110610c02575060019394959683601f19811610610be9575b505050811b01600682015561095e565b015160001960f88460031b161c19169055858080610bd9565b9091602060018192858b015181550193019101610bbb565b0151905085806108e4565b6005850160005260206000209060005b601f1984168110610c7c575060019394959683601f19811610610c63575b505050811b0160058401556108fc565b015160001960f88460031b161c19169055858080610c53565b9091602060018192858b015181550193019101610c35565b015190508580610864565b6001840160005260206000209060005b601f1984168110610cf6575060019394959683601f19811610610cdd575b505050811b01600183015561087c565b015160001960f88460031b161c19169055858080610ccd565b9091602060018192858b015181550193019101610caf565b60405162461bcd60e51b81526020600482015260156024820152744f6e6c7920696e737572657220616c6c6f7765642160581b6044820152606490fd5b3461021b57600036600319011261021b57604051806007548083526020809301809160076000527fa66cc928b5edb82af9bd49922954155ab7b0942694bea4ce44661d9a8736c6889060005b86828210610ded578686610dad82880383611c52565b604051928392818401908285525180915260408401929160005b828110610dd657505050500390f35b835185528695509381019392810192600101610dc7565b835485529093019260019283019201610d97565b600036600319011261021b573360005260206006815260ff60406000205416156110b857336000526004815260406000209060098201604051610e48816106468185611d6c565b828151910120610e5661204e565b8381519101201461107d57610e7060038401543414611eb9565b6007830180546203f47f198101908111611015574210611041576000805481908190819081906001600160a01b03163415611037575b3491f11561102b5760048401610ebd348254611f05565b90556008840180546001810180911161101557815581549262278d008401809411611015577fbdb688644eed2e2c7e113449ff1462490659a5767376cf6463769a1f385d5403957fca6a9c37d6ec21bf06f7e76da2608c0ba8c7ca86e2a3626cc570015e82e331239460609455600a810190610f42610f3c8354611d32565b83611e4a565b60086314185a5960e21b018255610f62610f5c8454611d32565b84611e4a565b6006600c6541637469766560d01b01918285550154421015610fdc575b5050503360005260058452610fc0604060002082549060405191610fa283611c1c565b34835242888401526040830152610fb7611f12565b85830152611f32565b546040519033825234858301526040820152a1604051338152a1005b610f3c610fe891611d32565b600e66115e1c1a5c995960ca1b0180925561100c6110068254611d32565b82611e4a565b55858080610f7f565b634e487b7160e01b600052601160045260246000fd5b6040513d6000823e3d90fd5b6108fc9150610ea6565b60405162461bcd60e51b81526004810184905260146024820152735061796d656e74206e6f7420647565207965742160601b6044820152606490fd5b60405162461bcd60e51b8152600481018390526013602482015272506f6c6963792068617320657870697265642160681b6044820152606490fd5b6064906040519062461bcd60e51b8252600482015260166024820152754e6f20737562736372697074696f6e20666f756e642160501b6044820152fd5b602036600319011261021b5760043533600052600660205260ff6040600020541661172c5780151580611720575b156116e95780600052600360205260406000209060405161114381611c00565b8254815260405161115b816106468160018801611d6c565b60208201526002830154604082015260038301549260608201938452600481015460808301908152604051611197816106468160058701611d6c565b60a08401526040516111b0816106468160068701611d6c565b60c08401526040516111c9816106468160078701611d6c565b60e08401526009604051926111ec846111e58160088501611d6c565b0385611c52565b6101009384860152015490610120918285015261120b86513414611eb9565b6000805481908190819081906001600160a01b031634156116df575b3491f11561102b57516301e1338090818102918183041490151715611015576112509042611f05565b62278d0042019081421161101557602085015196516040519761127289611be4565b3389528760208a0152604089015260608801523460808801524260a088015260c087015260e08601526001828601526112a9611e11565b818601526112b5611f12565b6101408601524261016086015233600052600460205260406000209160018060a01b038651166bffffffffffffffffffffffff60a01b8454161783556020860151600184015560408601518051906001600160401b03821161066357819061132d826113246002890154611d32565b60028901611e74565b602090601f831160011461166d57600092611662575b50508160011b916000199060031b1c19161760028401555b606086015160038401556080860151600484015560a0860151600584015560c0860151600684015560e0860151600784015585015160088301558401518051906001600160401b0382116106635781906113c5826113bc6009870154611d32565b60098701611e74565b602090601f83116001146115f0576000926115e5575b50508160011b916000199060031b1c19161760098201555b600a8101936101408101519485516001600160401b038111610663576114238161141d8454611d32565b84611e74565b6020601f82116001146115525792600b92826101609360209897967f959321a95c528dc7de1165bd02924bd0aa5ba9b46f0100c7fc80ab0ccc823ac99b600092611547575b50508160011b916000199060031b1c19161790555b015191015533600052600682526040600020600160ff198254161790556114a5600254611e02565b60025533600052600582526114e66040600020604051906114c582611c1c565b3482524285830152600160408301526114dc611f12565b6060830152611f32565b01519061150b6040519283923384526020840152606060408401526060830190611ba4565b0390a17fca6a9c37d6ec21bf06f7e76da2608c0ba8c7ca86e2a3626cc570015e82e33123606060405133815234602082015260016040820152a1005b015190508b80611468565b601f198216978360005260206000209860005b8181106115cd5750837f959321a95c528dc7de1165bd02924bd0aa5ba9b46f0100c7fc80ab0ccc823ac99a602099989794600b979461016097600195106115b4575b505050811b01905561147d565b015160001960f88460031b161c191690558b80806115a7565b838301518b556001909a019960209384019301611565565b0151905086806113db565b9250600984016000526020600020906000935b601f1984168510611647576001945083601f1981161061162e575b505050811b0160098201556113f3565b015160001960f88460031b161c1916905586808061161e565b81810151835560209485019460019093019290910190611603565b015190508880611343565b9250600286016000526020600020906000935b601f19841685106116c4576001945083601f198116106116ab575b505050811b01600284015561135b565b015160001960f88460031b161c1916905588808061169b565b81810151835560209485019460019093019290910190611680565b6108fc9150611227565b60405162461bcd60e51b815260206004820152600f60248201526e496e76616c696420706f6c6963792160881b6044820152606490fd5b50600154811115611123565b60405162461bcd60e51b8152602060048201526013602482015272416c726561647920737562736372696265642160681b6044820152606490fd5b3461021b57602036600319011261021b57602061178a611785611b8e565b612357565b604051908152f35b3461021b57602036600319011261021b5760006101206040516117b481611c00565b82815260606020820152826040820152826060820152826080820152606060a0820152606060c0820152606060e0820152606061010082015201526004356000526003602052604060002060096040519161180e83611c00565b80548352604051611826816106468160018601611d6c565b602084015260028101546040840152600381015460608401526004810154608084015260405161185d816106468160058601611d6c565b60a0840152604051611876816106468160068601611d6c565b60c084015260405161188f816106468160078601611d6c565b60e08401526040516118a8816106468160088601611d6c565b61010084015201546101208201526040518091602082528051602083015260208101516101206119676118e961014093846040880152610160870190611ba4565b6040850151606087015260608501516080870152608085015160a087015261195261193d61192960a088015193601f1994858b83030160c08c0152611ba4565b60c0880151848a83030160e08b0152611ba4565b60e087015183898303016101008a0152611ba4565b90610100860151908783030184880152611ba4565b920151908301520390f35b3461021b57600036600319011261021b576020600254604051908152f35b3461021b57602036600319011261021b5760006101606119ae611b8e565b926119b881611be4565b828152826020820152606060408201528260608201528260808201528260a08201528260c08201528260e08201528261010082015260606101208201526060610140820152015260018060a01b031660005260046020526040600020600b60405191611a2383611be4565b80546001600160a01b0316835260018101546020840152604051611a4e816106468160028601611d6c565b60408401526003810154606084015260048101546080840152600581015460a0840152600681015460c0840152600781015460e08401526008810154610100840152604051611aa4816106468160098601611d6c565b610120840152604051611abe8161064681600a8601611d6c565b610140840152015461016082015260405180916020825260018060a01b03815116602083015260208101516040830152610160611b81611b0f604084015161018060608701526101a0860190611ba4565b60608401516080860152608084015160a086015260a084015160c086015260c084015160e086015260e0840151610100860152610100840151610120860152611b6c61012085015191601f19928388830301610140890152611ba4565b90610140850151908683030184870152611ba4565b9101516101808301520390f35b600435906001600160a01b038216820361021b57565b919082519283825260005b848110611bd0575050826000602080949584010152601f8019910116010190565b602081830181015184830182015201611baf565b61018081019081106001600160401b0382111761066357604052565b61014081019081106001600160401b0382111761066357604052565b608081019081106001600160401b0382111761066357604052565b604081019081106001600160401b0382111761066357604052565b90601f801991011681019081106001600160401b0382111761066357604052565b81601f8201121561021b578035906001600160401b0382116106635760405192611ca7601f8401601f191660200185611c52565b8284526020838301011161021b57816000926020809301838601378301015290565b600754811015611d005760076000527fa66cc928b5edb82af9bd49922954155ab7b0942694bea4ce44661d9a8736c6880190600090565b634e487b7160e01b600052603260045260246000fd5b8054821015611d005760005260206000209060021b0190600090565b90600182811c92168015611d62575b6020831014611d4c57565b634e487b7160e01b600052602260045260246000fd5b91607f1691611d41565b9060009291805491611d7d83611d32565b918282526001938481169081600014611ddf5750600114611d9f575b50505050565b90919394506000526020928360002092846000945b838610611dcb575050505001019038808080611d99565b805485870183015294019385908201611db4565b9294505050602093945060ff191683830152151560051b01019038808080611d99565b60001981146110155760010190565b60405190611e1e82611c37565b600682526541637469766560d01b6020830152565b818110611e3e575050565b60008155600101611e33565b90601f8111611e57575050565b611e7291600052601f6020600020910160051c810190611e33565b565b9190601f8111611e8357505050565b611e72926000526020600020906020601f840160051c83019310611eaf575b601f0160051c0190611e33565b9091508190611ea2565b15611ec057565b60405162461bcd60e51b815260206004820152601960248201527f496e636f7272656374207072656d69756d20616d6f756e7421000000000000006044820152606490fd5b9190820180921161101557565b60405190611f1f82611c37565b600482526314185a5960e21b6020830152565b8054600160401b81101561066357611f51906001928382018155611d16565b61203857825181556060600360209283860151858201556040860151600282015501930151908151916001600160401b03831161066357611f9c83611f968754611d32565b87611e74565b81601f8411600114611fd55750928293918392600094611fca575b50501b916000199060031b1c1916179055565b015192503880611fb7565b919083601f1981168760005284600020946000905b8883831061201e5750505010612005575b505050811b019055565b015160001960f88460031b161c19169055388080611ffb565b858701518855909601959485019487935090810190611fea565b634e487b7160e01b600052600060045260246000fd5b6040519061205b82611c37565b6007825266115e1c1a5c995960ca1b6020830152565b6001600160a01b0316600081815260066020526040808220549193929160ff161561224a57600460205280842091600983019180516120b4816106468187611d6c565b602081519101206120c361204e565b602081519101201461224257600684015442101561220b576007840192835462093a8081018091116121f757421161216057505050546203f47f19810190811161214c57600a92935042101561213057016121216110068254611d32565b60086314185a5960e21b019055565b0161213e6110068254611d32565b60066244756560e81b019055565b634e487b7160e01b84526011600452602484fd5b7fda3c39d6d2b202f5c4cadf39cd22e795acd64e2b4bbe61122b92a8b3690a985995965060109293506080948161219c611006600a9454611d32565b60126814dd5cdc195b99195960ba1b019055016121bc6110068254611d32565b600e664f76657264756560c81b0190558051928352602083018190528201526f5061796d656e74206f7665726475652160801b6060820152a1565b634e487b7160e01b88526011600452602488fd5b5050919250600a90612220610f5c8454611d32565b600e66115e1c1a5c995960ca1b018093550161223f6110068254611d32565b55565b505050509050565b50509050565b60018060a01b0380600092168252600660205260409060ff828420541615612352576004602052610160600b83852084519361228b85611be4565b81541684526001810154602085015284516122ad816106468160028601611d6c565b858501526003810154606085015260048101546080850152600581015460a0850152600681015460c085015260078101549460e0850195865260088201546101008601528051612304816106468160098701611d6c565b6101208601525161231c8161064681600a8601611d6c565b6101408501520154910152516203f47f1981019190821161233e575042101590565b634e487b7160e01b81526011600452602490fd5b505090565b60018060a01b0380600092168252600660205260409060ff828420541615612352576004602052610160600b83852084519361239285611be4565b81541684526001810154602085015284516123b4816106468160028601611d6c565b858501526003810154606085015260048101546080850152600581015460a0850152600681015460c085015260078101549460e085019586526008820154610100860152805161240b816106468160098701611d6c565b610120860152516124238161064681600a8601611d6c565b610140850152015491015251908142101561244c5742820391821161233e575062015180900490565b90509056fea264697066735822122073542648f88214cd1d066393a25dd6ab0e3c3c2f6386c1bed1c466e50c5ca93164736f6c63430008130033",
  "immutableReferences": {},
  "source": "// SPDX-License-Identifier: MIT\r\npragma solidity ^0.8.0;\r\n\r\ncontract PolicyContract {\r\n\r\n    address public insurer;\r\n\r\n    // ================================\r\n    // STRUCTS\r\n    // ================================\r\n\r\n    struct PolicyInput {\r\n        string  policyName;\r\n        uint256 coverageLimit;\r\n        uint256 premiumAmount;   // Monthly premium in Wei\r\n        uint256 validityPeriod;  // In years\r\n        string  ipfsCID;\r\n        string  covered;\r\n        string  excluded;\r\n    }\r\n\r\n    struct Policy {\r\n        uint256 policyId;\r\n        string  policyName;\r\n        uint256 coverageLimit;\r\n        uint256 premiumAmount;   // Monthly premium in Wei\r\n        uint256 validityPeriod;  // In years\r\n        string  ipfsCID;\r\n        string  covered;\r\n        string  excluded;\r\n        string  status;          // \"Active\" | \"Inactive\"\r\n        uint256 timestamp;\r\n    }\r\n\r\n    struct Subscription {\r\n        address patientAddress;\r\n        uint256 policyId;\r\n        string  policyName;\r\n        uint256 premiumAmount;       // Monthly premium\r\n        uint256 totalPaid;           // Total ETH paid so far\r\n        uint256 startDate;           // Subscription start\r\n        uint256 endDate;             // Policy end (years)\r\n        uint256 nextDueDate;         // Next monthly due date\r\n        uint256 monthsPaid;          // How many months paid\r\n        string  subscriptionStatus;  // \"Active\"|\"Suspended\"|\"Expired\"\r\n        string  paymentStatus;       // \"Paid\"|\"Due\"|\"Overdue\"\r\n        uint256 timestamp;\r\n    }\r\n\r\n    struct PaymentRecord {\r\n        uint256 amount;\r\n        uint256 paidOn;\r\n        uint256 monthNumber;\r\n        string  status;\r\n    }\r\n\r\n    // ================================\r\n    // STORAGE\r\n    // ================================\r\n\r\n    uint256 public policyCount;\r\n    uint256 public subscriptionCount;\r\n\r\n    mapping(uint256 => Policy)          public policies;\r\n    mapping(address => Subscription)    public subscriptions;\r\n    mapping(address => PaymentRecord[]) public paymentHistory;\r\n    mapping(address => bool)            public hasSubscription;\r\n\r\n    uint256[] public allPolicyIds;\r\n\r\n    // ================================\r\n    // EVENTS\r\n    // ================================\r\n\r\n    event PolicyCreated(uint256 policyId, string policyName);\r\n    event PolicySubscribed(address patient, uint256 policyId, string policyName);\r\n    event MonthlyPremiumPaid(address patient, uint256 amount, uint256 monthNumber);\r\n    event PolicySuspended(address patient, string reason);\r\n    event PolicyReactivated(address patient);\r\n\r\n    // ================================\r\n    // MODIFIERS\r\n    // ================================\r\n\r\n    modifier onlyInsurer() {\r\n        require(msg.sender == insurer, \"Only insurer allowed!\");\r\n        _;\r\n    }\r\n\r\n    modifier hasActiveSub() {\r\n        require(hasSubscription[msg.sender], \"No subscription found!\");\r\n        _;\r\n    }\r\n\r\n    // ================================\r\n    // CONSTRUCTOR\r\n    // ================================\r\n\r\n    constructor() {\r\n        insurer = msg.sender;\r\n    }\r\n\r\n    // ================================\r\n    // CREATE POLICY (Insurer only)\r\n    // ================================\r\n\r\n    function createPolicy(PolicyInput memory input) public onlyInsurer {\r\n        policyCount++;\r\n\r\n        policies[policyCount] = Policy({\r\n            policyId:       policyCount,\r\n            policyName:     input.policyName,\r\n            coverageLimit:  input.coverageLimit,\r\n            premiumAmount:  input.premiumAmount,\r\n            validityPeriod: input.validityPeriod,\r\n            ipfsCID:        input.ipfsCID,\r\n            covered:        input.covered,\r\n            excluded:       input.excluded,\r\n            status:         \"Active\",\r\n            timestamp:      block.timestamp\r\n        });\r\n\r\n        allPolicyIds.push(policyCount);\r\n        emit PolicyCreated(policyCount, input.policyName);\r\n    }\r\n\r\n    // ================================\r\n    // SUBSCRIBE POLICY  First Month\r\n    // ================================\r\n\r\n    function subscribePolicy(uint256 policyId) public payable {\r\n        require(!hasSubscription[msg.sender], \"Already subscribed!\");\r\n        require(policyId > 0 && policyId <= policyCount, \"Invalid policy!\");\r\n\r\n        Policy memory p = policies[policyId];\r\n        require(msg.value == p.premiumAmount, \"Incorrect premium amount!\");\r\n\r\n        // Send first month to insurer\r\n        payable(insurer).transfer(msg.value);\r\n\r\n        uint256 start       = block.timestamp;\r\n        uint256 end         = block.timestamp + (p.validityPeriod * 365 days);\r\n        uint256 nextDueDate = block.timestamp + 30 days;\r\n\r\n        subscriptions[msg.sender] = Subscription({\r\n            patientAddress:     msg.sender,\r\n            policyId:           policyId,\r\n            policyName:         p.policyName,\r\n            premiumAmount:      p.premiumAmount,\r\n            totalPaid:          msg.value,\r\n            startDate:          start,\r\n            endDate:            end,\r\n            nextDueDate:        nextDueDate,\r\n            monthsPaid:         1,\r\n            subscriptionStatus: \"Active\",\r\n            paymentStatus:      \"Paid\",\r\n            timestamp:          block.timestamp\r\n        });\r\n\r\n        hasSubscription[msg.sender] = true;\r\n        subscriptionCount++;\r\n\r\n        // Record payment\r\n        paymentHistory[msg.sender].push(PaymentRecord({\r\n            amount:      msg.value,\r\n            paidOn:      block.timestamp,\r\n            monthNumber: 1,\r\n            status:      \"Paid\"\r\n        }));\r\n\r\n        emit PolicySubscribed(msg.sender, policyId, p.policyName);\r\n        emit MonthlyPremiumPaid(msg.sender, msg.value, 1);\r\n    }\r\n\r\n    // ================================\r\n    // PAY MONTHLY PREMIUM\r\n    // ================================\r\n\r\n    function payMonthlyPremium() public payable hasActiveSub {\r\n        Subscription storage sub = subscriptions[msg.sender];\r\n\r\n        require(\r\n            keccak256(bytes(sub.subscriptionStatus)) != keccak256(bytes(\"Expired\")),\r\n            \"Policy has expired!\"\r\n        );\r\n        require(\r\n            msg.value == sub.premiumAmount,\r\n            \"Incorrect premium amount!\"\r\n        );\r\n        require(\r\n            block.timestamp >= sub.nextDueDate - 3 days,\r\n            \"Payment not due yet!\"\r\n        );\r\n\r\n        // Send to insurer\r\n        payable(insurer).transfer(msg.value);\r\n\r\n        // Update subscription\r\n        sub.totalPaid          += msg.value;\r\n        sub.monthsPaid         += 1;\r\n        sub.nextDueDate        += 30 days;\r\n        sub.paymentStatus       = \"Paid\";\r\n        sub.subscriptionStatus  = \"Active\";\r\n\r\n        // Check if fully expired\r\n        if (block.timestamp >= sub.endDate) {\r\n            sub.subscriptionStatus = \"Expired\";\r\n            sub.paymentStatus      = \"Expired\";\r\n        }\r\n\r\n        // Record payment\r\n        paymentHistory[msg.sender].push(PaymentRecord({\r\n            amount:      msg.value,\r\n            paidOn:      block.timestamp,\r\n            monthNumber: sub.monthsPaid,\r\n            status:      \"Paid\"\r\n        }));\r\n\r\n        emit MonthlyPremiumPaid(msg.sender, msg.value, sub.monthsPaid);\r\n        emit PolicyReactivated(msg.sender);\r\n    }\r\n\r\n    // ================================\r\n    // CHECK & UPDATE STATUS (anyone)\r\n    // ================================\r\n\r\n    function checkPaymentStatus(address patient) public {\r\n        if (!hasSubscription[patient]) return;\r\n\r\n        Subscription storage sub = subscriptions[patient];\r\n\r\n        // Already expired\r\n        if (keccak256(bytes(sub.subscriptionStatus)) == keccak256(bytes(\"Expired\"))) return;\r\n\r\n        // Policy period over\r\n        if (block.timestamp >= sub.endDate) {\r\n            sub.subscriptionStatus = \"Expired\";\r\n            sub.paymentStatus      = \"Expired\";\r\n            return;\r\n        }\r\n\r\n        // Overdue  more than 7 days past due\r\n        if (block.timestamp > sub.nextDueDate + 7 days) {\r\n            sub.subscriptionStatus = \"Suspended\";\r\n            sub.paymentStatus      = \"Overdue\";\r\n            emit PolicySuspended(patient, \"Payment overdue!\");\r\n            return;\r\n        }\r\n\r\n        // Due  past due date within grace period\r\n        if (block.timestamp >= sub.nextDueDate - 3 days) {\r\n            sub.paymentStatus = \"Due\";\r\n            return;\r\n        }\r\n\r\n        sub.paymentStatus = \"Paid\";\r\n    }\r\n\r\n    // ================================\r\n    // VIEW FUNCTIONS\r\n    // ================================\r\n\r\n    function getAllPolicies() public view returns (uint256[] memory) {\r\n        return allPolicyIds;\r\n    }\r\n\r\n    function getPolicy(uint256 policyId) public view returns (Policy memory) {\r\n        return policies[policyId];\r\n    }\r\n\r\n    function getSubscription(address patient) public view returns (Subscription memory) {\r\n        return subscriptions[patient];\r\n    }\r\n\r\n    function getPaymentHistory(address patient) public view returns (PaymentRecord[] memory) {\r\n        return paymentHistory[patient];\r\n    }\r\n\r\n    function checkActivePolicy(address patient) public view returns (bool) {\r\n        return hasSubscription[patient];\r\n    }\r\n\r\n    function isPaymentDue(address patient) public view returns (bool) {\r\n        if (!hasSubscription[patient]) return false;\r\n        Subscription memory sub = subscriptions[patient];\r\n        return block.timestamp >= sub.nextDueDate - 3 days;\r\n    }\r\n\r\n    function getDaysUntilDue(address patient) public view returns (uint256) {\r\n        if (!hasSubscription[patient]) return 0;\r\n        Subscription memory sub = subscriptions[patient];\r\n        if (block.timestamp >= sub.nextDueDate) return 0;\r\n        return (sub.nextDueDate - block.timestamp) / 1 days;\r\n    }\r\n}\r\n",
  "sourcePath": "E:\\medinsure\\contracts\\PolicyContract.sol",
  "compiler": {
    "name": "solc",
    "version": "0.8.19+commit.7dd6d404.Emscripten.clang"
  },
  "schemaVersion": "3.4.16",
  "updatedAt": "2026-02-25T17:11:57.203Z",
  "networkType": "ethereum",
  "devdoc": {
    "kind": "dev",
    "methods": {},
    "version": 1
  },
  "userdoc": {
    "kind": "user",
    "methods": {},
    "version": 1
  }
}