{
  "contractName": "UserRegistry",
  "abi": [
    {
      "inputs": [],
      "stateMutability": "nonpayable",
      "type": "constructor"
    },
    {
      "anonymous": false,
      "inputs": [
        {
          "indexed": false,
          "internalType": "address",
          "name": "walletAddress",
          "type": "address"
        },
        {
          "indexed": false,
          "internalType": "string",
          "name": "name",
          "type": "string"
        },
        {
          "indexed": false,
          "internalType": "uint256",
          "name": "timestamp",
          "type": "uint256"
        }
      ],
      "name": "PatientApproved",
      "type": "event"
    },
    {
      "anonymous": false,
      "inputs": [
        {
          "indexed": false,
          "internalType": "uint256",
          "name": "patientId",
          "type": "uint256"
        },
        {
          "indexed": false,
          "internalType": "string",
          "name": "name",
          "type": "string"
        },
        {
          "indexed": false,
          "internalType": "address",
          "name": "walletAddress",
          "type": "address"
        },
        {
          "indexed": false,
          "internalType": "uint256",
          "name": "timestamp",
          "type": "uint256"
        }
      ],
      "name": "PatientRegistered",
      "type": "event"
    },
    {
      "anonymous": false,
      "inputs": [
        {
          "indexed": false,
          "internalType": "address",
          "name": "walletAddress",
          "type": "address"
        },
        {
          "indexed": false,
          "internalType": "string",
          "name": "name",
          "type": "string"
        },
        {
          "indexed": false,
          "internalType": "uint256",
          "name": "timestamp",
          "type": "uint256"
        }
      ],
      "name": "PatientRejected",
      "type": "event"
    },
    {
      "inputs": [
        {
          "internalType": "string",
          "name": "",
          "type": "string"
        }
      ],
      "name": "aadharExists",
      "outputs": [
        {
          "internalType": "bool",
          "name": "",
          "type": "bool"
        }
      ],
      "stateMutability": "view",
      "type": "function",
      "constant": true
    },
    {
      "inputs": [
        {
          "internalType": "uint256",
          "name": "",
          "type": "uint256"
        }
      ],
      "name": "allPatients",
      "outputs": [
        {
          "internalType": "address",
          "name": "",
          "type": "address"
        }
      ],
      "stateMutability": "view",
      "type": "function",
      "constant": true
    },
    {
      "inputs": [],
      "name": "insurer",
      "outputs": [
        {
          "internalType": "address",
          "name": "",
          "type": "address"
        }
      ],
      "stateMutability": "view",
      "type": "function",
      "constant": true
    },
    {
      "inputs": [
        {
          "internalType": "address",
          "name": "",
          "type": "address"
        }
      ],
      "name": "isApproved",
      "outputs": [
        {
          "internalType": "bool",
          "name": "",
          "type": "bool"
        }
      ],
      "stateMutability": "view",
      "type": "function",
      "constant": true
    },
    {
      "inputs": [
        {
          "internalType": "address",
          "name": "",
          "type": "address"
        }
      ],
      "name": "isRegistered",
      "outputs": [
        {
          "internalType": "bool",
          "name": "",
          "type": "bool"
        }
      ],
      "stateMutability": "view",
      "type": "function",
      "constant": true
    },
    {
      "inputs": [],
      "name": "patientCount",
      "outputs": [
        {
          "internalType": "uint256",
          "name": "",
          "type": "uint256"
        }
      ],
      "stateMutability": "view",
      "type": "function",
      "constant": true
    },
    {
      "inputs": [
        {
          "internalType": "address",
          "name": "",
          "type": "address"
        }
      ],
      "name": "patients",
      "outputs": [
        {
          "internalType": "uint256",
          "name": "patientId",
          "type": "uint256"
        },
        {
          "internalType": "string",
          "name": "name",
          "type": "string"
        },
        {
          "internalType": "string",
          "name": "dob",
          "type": "string"
        },
        {
          "internalType": "string",
          "name": "gender",
          "type": "string"
        },
        {
          "internalType": "string",
          "name": "mobile",
          "type": "string"
        },
        {
          "internalType": "string",
          "name": "email",
          "type": "string"
        },
        {
          "internalType": "string",
          "name": "location",
          "type": "string"
        },
        {
          "internalType": "bool",
          "name": "otpVerified",
          "type": "bool"
        },
        {
          "internalType": "string",
          "name": "aadharHash",
          "type": "string"
        },
        {
          "internalType": "string",
          "name": "photoHash",
          "type": "string"
        },
        {
          "internalType": "address",
          "name": "walletAddress",
          "type": "address"
        },
        {
          "internalType": "string",
          "name": "status",
          "type": "string"
        },
        {
          "internalType": "uint256",
          "name": "timestamp",
          "type": "uint256"
        }
      ],
      "stateMutability": "view",
      "type": "function",
      "constant": true
    },
    {
      "inputs": [
        {
          "internalType": "uint256",
          "name": "",
          "type": "uint256"
        }
      ],
      "name": "pendingPatients",
      "outputs": [
        {
          "internalType": "address",
          "name": "",
          "type": "address"
        }
      ],
      "stateMutability": "view",
      "type": "function",
      "constant": true
    },
    {
      "inputs": [
        {
          "components": [
            {
              "internalType": "string",
              "name": "name",
              "type": "string"
            },
            {
              "internalType": "string",
              "name": "dob",
              "type": "string"
            },
            {
              "internalType": "string",
              "name": "gender",
              "type": "string"
            },
            {
              "internalType": "string",
              "name": "mobile",
              "type": "string"
            },
            {
              "internalType": "string",
              "name": "email",
              "type": "string"
            },
            {
              "internalType": "string",
              "name": "location",
              "type": "string"
            },
            {
              "internalType": "bool",
              "name": "otpVerified",
              "type": "bool"
            },
            {
              "internalType": "string",
              "name": "aadharHash",
              "type": "string"
            },
            {
              "internalType": "string",
              "name": "photoHash",
              "type": "string"
            }
          ],
          "internalType": "struct UserRegistry.PatientInput",
          "name": "input",
          "type": "tuple"
        }
      ],
      "name": "registerPatient",
      "outputs": [],
      "stateMutability": "nonpayable",
      "type": "function"
    },
    {
      "inputs": [
        {
          "internalType": "address",
          "name": "_walletAddress",
          "type": "address"
        }
      ],
      "name": "approvePatient",
      "outputs": [],
      "stateMutability": "nonpayable",
      "type": "function"
    },
    {
      "inputs": [
        {
          "internalType": "address",
          "name": "_walletAddress",
          "type": "address"
        }
      ],
      "name": "rejectPatient",
      "outputs": [],
      "stateMutability": "nonpayable",
      "type": "function"
    },
    {
      "inputs": [
        {
          "internalType": "address",
          "name": "_walletAddress",
          "type": "address"
        }
      ],
      "name": "getPatient",
      "outputs": [
        {
          "components": [
            {
              "internalType": "uint256",
              "name": "patientId",
              "type": "uint256"
            },
            {
              "internalType": "string",
              "name": "name",
              "type": "string"
            },
            {
              "internalType": "string",
              "name": "dob",
              "type": "string"
            },
            {
              "internalType": "string",
              "name": "gender",
              "type": "string"
            },
            {
              "internalType": "string",
              "name": "mobile",
              "type": "string"
            },
            {
              "internalType": "string",
              "name": "email",
              "type": "string"
            },
            {
              "internalType": "string",
              "name": "location",
              "type": "string"
            },
            {
              "internalType": "bool",
              "name": "otpVerified",
              "type": "bool"
            },
            {
              "internalType": "string",
              "name": "aadharHash",
              "type": "string"
            },
            {
              "internalType": "string",
              "name": "photoHash",
              "type": "string"
            },
            {
              "internalType": "address",
              "name": "walletAddress",
              "type": "address"
            },
            {
              "internalType": "string",
              "name": "status",
              "type": "string"
            },
            {
              "internalType": "uint256",
              "name": "timestamp",
              "type": "uint256"
            }
          ],
          "internalType": "struct UserRegistry.Patient",
          "name": "",
          "type": "tuple"
        }
      ],
      "stateMutability": "view",
      "type": "function",
      "constant": true
    },
    {
      "inputs": [],
      "name": "getPendingPatients",
      "outputs": [
        {
          "internalType": "address[]",
          "name": "",
          "type": "address[]"
        }
      ],
      "stateMutability": "view",
      "type": "function",
      "constant": true
    },
    {
      "inputs": [],
      "name": "getAllPatients",
      "outputs": [
        {
          "internalType": "address[]",
          "name": "",
          "type": "address[]"
        }
      ],
      "stateMutability": "view",
      "type": "function",
      "constant": true
    },
    {
      "inputs": [
        {
          "internalType": "address",
          "name": "_walletAddress",
          "type": "address"
        }
      ],
      "name": "checkPatientApproved",
      "outputs": [
        {
          "internalType": "bool",
          "name": "",
          "type": "bool"
        }
      ],
      "stateMutability": "view",
      "type": "function",
      "constant": true
    },
    {
      "inputs": [
        {
          "internalType": "address",
          "name": "_walletAddress",
          "type": "address"
        }
      ],
      "name": "checkPatientRegistered",
      "outputs": [
        {
          "internalType": "bool",
          "name": "",
          "type": "bool"
        }
      ],
      "stateMutability": "view",
      "type": "function",
      "constant": true
    }
  ],
  "bytecode": "0x6080806040523461002d576000600181905580546001600160a01b03191633179055611bd590816100338239f35b600080fdfe6080604052600436101561001257600080fd5b60003560e01c80630869cfbc146116325780630b171c0b146115ae57806318a231a91461151a578063200c85f71461076c5780632c9365fa146106ac578063673448dd146100cc5780637509807d14610574578063823448e814610513578063867d56d5146104b8578063a0303c411461049a578063b5368e20146101db578063c3c5a54714610114578063d8f608df14610180578063dbc837c514610157578063f159b378146101145763f3996d8a146100cc57600080fd5b3461010f57602036600319011261010f576004356001600160a01b0381169081900361010f576000526004602052602060ff604060002054166040519015158152f35b600080fd5b3461010f57602036600319011261010f576004356001600160a01b0381169081900361010f576000526003602052602060ff604060002054166040519015158152f35b3461010f57600036600319011261010f576000546040516001600160a01b039091168152602090f35b3461010f57602036600319011261010f5760043560075481101561010f5760076000527fa66cc928b5edb82af9bd49922954155ab7b0942694bea4ce44661d9a8736c68801546040516001600160a01b039091168152602090f35b3461010f57602036600319011261010f576004356001600160a01b038116810361010f576000610180604051610210816117ef565b828152606060208201526060604082015260608082015260606080820152606060a0820152606060c08201528260e082015260606101008201526060610120820152826101408201526060610160820152015260018060a01b038116600052600360205261028560ff60406000205416611aaa565b60018060a01b031660005260026020526040602081600020600c8351916102ab836117ef565b805483526102bb6001820161182c565b848401526102cb6002820161182c565b858401526102db6003820161182c565b60608401526102ec6004820161182c565b60808401526102fd6005820161182c565b60a084015261030e6006820161182c565b60c084015260ff600782015416151560e084015261032e6008820161182c565b6101008401526103406009820161182c565b610120840152600a8101546001600160a01b0316610140840152610366600b820161182c565b610160840152015461018082015261018061048d61046161044961042461040e6103f86103e26103cc6103b68a6101a08e519e8f9e8f9381855280518286015201519201526101c08d01906118f5565b60408b01518c8203601f190160608e01526118f5565b60608a01518b8203601f190160808d01526118f5565b60808901518a8203601f190160a08c01526118f5565b60a0880151898203601f190160c08b01526118f5565b60c0870151888203601f190160e08a01526118f5565b60e08601511515610100880152610100860151601f19888303016101208901526118f5565b610120850151868203601f19016101408801526118f5565b6101408401516001600160a01b031661016086810191909152840151858203601f1901848701526118f5565b9101516101a08301520390f35b3461010f57600036600319011261010f576020600154604051908152f35b3461010f57602036600319011261010f5760043560065481101561010f5760066000527ff652222313e28459528d920b65115c16c04f3efc82aaedc97be59f3f377c0d3f01546040516001600160a01b039091168152602090f35b3461010f57602036600319011261010f576004356001600160401b03811161010f5760ff61055e602061054b8194369060040161195e565b81604051938285809451938492016118d2565b8101600581520301902054166040519015158152f35b3461010f5760208060031936011261010f576004356001600160a01b038082169081830361010f576105ab90600054163314611a5e565b80600052600383526105c460ff60406000205416611aaa565b806000526004835260ff60406000205416610667577fc8d9adbe8fe339f7c7a95a0a30e9b3a0f384445e2b8ab2a1fce025a4b8907e9a9281600292600052828252600b60406000200161062061061a82546117b5565b826119f1565b601067105c1c1c9bdd995960c21b019055600052600481526040600020600160ff19825416179055526001604060002001610662604051928392429184611aef565b0390a1005b60405162461bcd60e51b815260048101849052601860248201527f50617469656e7420616c726561647920617070726f76656400000000000000006044820152606490fd5b3461010f57602036600319011261010f576001600160a01b0360043581811680820361010f576107027fb182a37310fdec5a7eb41b626afe678858d2869fbc782028ebba74739556275993600054163314611a5e565b80600052600360205261071c60ff60406000205416611aaa565b806000526002602052600b60406000200161073a61061a82546117b5565b60106714995a9958dd195960c21b01905560005260026020526001604060002001610662604051928392429184611aef565b3461010f5760031960203682011261010f576001600160401b036004351161010f57610120906004353603011261010f5760405161012081018181106001600160401b03821117610f6657604052600435600401356001600160401b03811161010f576107e090600436918135010161195e565b8152602460043501356001600160401b03811161010f5761080890600436918135010161195e565b6020820152604460043501356001600160401b03811161010f5761083390600436918135010161195e565b6040820152606460043501356001600160401b03811161010f5761085e90600436918135010161195e565b6060820152608460043501356001600160401b03811161010f5761088990600436918135010161195e565b608082015260a460043501356001600160401b03811161010f576108b490600436918135010161195e565b60a082015260c46004350135801515810361010f5760c082015260e460043501356001600160401b03811161010f576108f490600436918135010161195e565b60e08201526001600160401b0361010460043501351161010f576109233660048035610104810135010161195e565b61010082015233600052600360205260ff604060002054166114d55760ff61094e60e08301516119b4565b541661149057600160c082015115150361145857610100810151511561141e5760e081015151156113e35760015460001981146113cd57600181016001558151602083015160408401516060850151608086015160a08701519160c088015115159360e0890151956101008a01519760016040519a6109cc8c6117ef565b018a5260208a015260408901526060880152608087015260a086015260c085015260e0840152610100830152610120820152336101408201526040518060408101106001600160401b03604083011117610f665760408101604052600781526650656e64696e6760c81b6020820152610160820152426101808201523360005260026020526040600020918151835560208201519283516001600160401b038111610f6657610a8b81610a8260018501546117b5565b60018501611a19565b6020601f821160011461135e578192939495600092611353575b50508160011b916000199060031b1c19161760018201555b60408301519283516001600160401b038111610f6657610aed81610ae460028601546117b5565b60028601611a19565b6020601f82116001146112e45781929394956000926112d9575b50508160011b916000199060031b1c19161760028301555b60608101519283516001600160401b038111610f6657610b4f81610b4660038701546117b5565b60038701611a19565b6020601f821160011461126a57819293949560009261125f575b50508160011b916000199060031b1c19161760038401555b60808201519283516001600160401b038111610f6657610bb181610ba860048501546117b5565b60048501611a19565b6020601f82116001146111f05781929394956000926111e5575b50508160011b916000199060031b1c19161760048201555b60a08301519283516001600160401b038111610f6657610c1381610c0a60058601546117b5565b60058601611a19565b6020601f821160011461117657819293949560009261116b575b50508160011b916000199060031b1c19161760058301555b60c08101519283516001600160401b038111610f6657610c7581610c6c60068701546117b5565b60068701611a19565b6020601f82116001146110fc5781929394956000926110f1575b50508160011b916000199060031b1c19161760068401555b6007830160e0830151151560ff801983541691161790556101008201519283516001600160401b038111610f6657610cef81610ce660088501546117b5565b60088501611a19565b6020601f8211600114611082578192939495600092611077575b50508160011b916000199060031b1c19161760088201555b6101208301519283516001600160401b038111610f6657610d5281610d4960098601546117b5565b60098601611a19565b6020601f8211600114611008578192939495600092610ffd575b50508160011b916000199060031b1c19161760098301555b600a820160018060a01b03610140830151166bffffffffffffffffffffffff60a01b8254161790556101608101518051906001600160401b038211610f6657610ddd82610dd4600b8701546117b5565b600b8701611a19565b602090601f8311600114610f87579180600c949261018094600092610f7c575b50508160011b916000199060031b1c191617600b8501555b01519101553360005260036020526040600020600160ff19825416179055610e4060e08201516119b4565b805460ff1916600117905560065468010000000000000000919082811015610f66576001810180600655811015610f50577ff652222313e28459528d920b65115c16c04f3efc82aaedc97be59f3f377c0d3f0180546001600160a01b0319163317905560075491821015610f66576001820180600755821015610f50577fd3b9b911aaeaa2d98ccff4ec7e4bf22ec4b6a5b59d53b1eac84017b91fafa8399160076000527fa66cc928b5edb82af9bd49922954155ab7b0942694bea4ce44661d9a8736c68801336bffffffffffffffffffffffff60a01b825416179055600154905190610f3f60405192839283526080602084015260808301906118f5565b3360408301524260608301520390a1005b634e487b7160e01b600052603260045260246000fd5b634e487b7160e01b600052604160045260246000fd5b015190508780610dfd565b90600b850160005260206000209160005b601f1985168110610fe5575092600c94926001926101809583601f19811610610fcc575b505050811b01600b850155610e15565b015160001960f88460031b161c19169055878080610fbc565b91926020600181928685015181550194019201610f98565b015190508580610d6c565b6009840160005260206000209060005b601f198416811061105f575060019394959683601f19811610611046575b505050811b016009830155610d84565b015160001960f88460031b161c19169055858080611036565b9091602060018192858b015181550193019101611018565b015190508580610d09565b6008830160005260206000209060005b601f19841681106110d9575060019394959683601f198116106110c0575b505050811b016008820155610d21565b015160001960f88460031b161c191690558580806110b0565b9091602060018192858b015181550193019101611092565b015190508580610c8f565b6006850160005260206000209060005b601f1984168110611153575060019394959683601f1981161061113a575b505050811b016006840155610ca7565b015160001960f88460031b161c1916905585808061112a565b9091602060018192858b01518155019301910161110c565b015190508580610c2d565b6005840160005260206000209060005b601f19841681106111cd575060019394959683601f198116106111b4575b505050811b016005830155610c45565b015160001960f88460031b161c191690558580806111a4565b9091602060018192858b015181550193019101611186565b015190508580610bcb565b6004830160005260206000209060005b601f1984168110611247575060019394959683601f1981161061122e575b505050811b016004820155610be3565b015160001960f88460031b161c1916905585808061121e565b9091602060018192858b015181550193019101611200565b015190508580610b69565b6003850160005260206000209060005b601f19841681106112c1575060019394959683601f198116106112a8575b505050811b016003840155610b81565b015160001960f88460031b161c19169055858080611298565b9091602060018192858b01518155019301910161127a565b015190508580610b07565b6002840160005260206000209060005b601f198416811061133b575060019394959683601f19811610611322575b505050811b016002830155610b1f565b015160001960f88460031b161c19169055858080611312565b9091602060018192858b0151815501930191016112f4565b015190508580610aa5565b6001830160005260206000209060005b601f19841681106113b5575060019394959683601f1981161061139c575b505050811b016001820155610abd565b015160001960f88460031b161c1916905585808061138c565b9091602060018192858b01518155019301910161136e565b634e487b7160e01b600052601160045260246000fd5b60405162461bcd60e51b81526020600482015260136024820152721058591a185c881b9bdd081c1c9bdd9a591959606a1b6044820152606490fd5b60405162461bcd60e51b8152602060048201526012602482015271141a1bdd1bc81b9bdd081d5c1b1bd859195960721b6044820152606490fd5b60405162461bcd60e51b815260206004820152601060248201526f13d514081b9bdd081d995c9a599a595960821b6044820152606490fd5b60405162461bcd60e51b815260206004820152601960248201527f41616468617220616c72656164792072656769737465726564000000000000006044820152606490fd5b60405162461bcd60e51b815260206004820152601a60248201527f50617469656e7420616c726561647920726567697374657265640000000000006044820152606490fd5b3461010f57600036600319011261010f57604051806007549182815260208091019260076000527fa66cc928b5edb82af9bd49922954155ab7b0942694bea4ce44661d9a8736c688916000905b82821061158e5761158a8561157e8189038261180b565b6040519182918261191a565b0390f35b83546001600160a01b031686529485019460019384019390910190611567565b3461010f57600036600319011261010f57604051806006549182815260208091019260066000527ff652222313e28459528d920b65115c16c04f3efc82aaedc97be59f3f377c0d3f916000905b8282106116125761158a8561157e8189038261180b565b83546001600160a01b0316865294850194600193840193909101906115fb565b3461010f57602036600319011261010f576001600160a01b036004358181169081900361010f576000526002602052604060002090815490600183016116779061182c565b926116846002820161182c565b916116916003830161182c565b9061169e6004840161182c565b6116aa6005850161182c565b6116b66006860161182c565b600786015460ff16916116cb6008880161182c565b936116d86009890161182c565b95600a8901541696600b89016116ed9061182c565b98600c0154996040519c8d9c8d528c6101a06020819201528d01611710916118f5565b8c810360408e0152611721916118f5565b8b810360608d0152611732916118f5565b8a810360808c0152611743916118f5565b89810360a08b0152611754916118f5565b88810360c08a0152611765916118f5565b90151560e088015286810361010088015261177f916118f5565b858103610120870152611791916118f5565b906101408501528381036101608501526117aa916118f5565b906101808301520390f35b90600182811c921680156117e5575b60208310146117cf57565b634e487b7160e01b600052602260045260246000fd5b91607f16916117c4565b6101a081019081106001600160401b03821117610f6657604052565b90601f801991011681019081106001600160401b03821117610f6657604052565b9060405191826000825492611840846117b5565b9081845260019485811690816000146118af575060011461186c575b505061186a9250038361180b565b565b9093915060005260209081600020936000915b81831061189757505061186a9350820101388061185c565b8554888401850152948501948794509183019161187f565b91505061186a94506020925060ff191682840152151560051b820101388061185c565b60005b8381106118e55750506000910152565b81810151838201526020016118d5565b9060209161190e815180928185528580860191016118d2565b601f01601f1916010190565b6020908160408183019282815285518094520193019160005b828110611941575050505090565b83516001600160a01b031685529381019392810192600101611933565b81601f8201121561010f578035906001600160401b038211610f665760405192611992601f8401601f19166020018561180b565b8284526020838301011161010f57816000926020809301838601378301015290565b60206119cd9181604051938285809451938492016118d2565b8101600581520301902090565b8181106119e5575050565b600081556001016119da565b90601f81116119fe575050565b61186a91600052601f6020600020910160051c8101906119da565b9190601f8111611a2857505050565b61186a926000526020600020906020601f840160051c83019310611a54575b601f0160051c01906119da565b9091508190611a47565b15611a6557565b60405162461bcd60e51b815260206004820152601860248201527f4f6e6c7920696e73757265722063616e20646f207468697300000000000000006044820152606490fd5b15611ab157565b60405162461bcd60e51b815260206004820152601660248201527514185d1a595b9d081b9bdd081c9959da5cdd195c995960521b6044820152606490fd5b9392919060018060a01b0316845260206060818601526000908254611b13816117b5565b938460608901526001918281169081600014611b7a5750600114611b3e575b50505060409150930152565b6000908152828120909493505b838510611b6657505050506080604091850101388080611b32565b805488860160800152938201938101611b4b565b9250505060809250604093915060ff191682870152151560051b850101388080611b3256fea2646970667358221220b361a7818a7983aca1691751abaf6c46c8a787ed69eefeec3955fe61135da82664736f6c63430008130033",
  "immutableReferences": {},
  "source": "// SPDX-License-Identifier: MIT\r\npragma solidity ^0.8.19;\r\n\r\ncontract UserRegistry {\r\n\r\n    address public insurer;\r\n\r\n    // ================================\r\n    // PATIENT STRUCT\r\n    // ================================\r\n    struct Patient {\r\n        uint patientId;\r\n\r\n        // 1. BASIC DETAILS\r\n        string name;\r\n        string dob;\r\n        string gender;\r\n        string mobile;\r\n        string email;\r\n        string location;\r\n\r\n        // 2. OTP VERIFICATION\r\n        bool otpVerified;\r\n\r\n        // 3. AADHAAR VERIFICATION\r\n        string aadharHash;\r\n\r\n        // 4. FACE RECOGNITION\r\n        string photoHash;\r\n\r\n        // SYSTEM FIELDS\r\n        address walletAddress;\r\n        string status;\r\n        uint timestamp;\r\n    }\r\n\r\n    // ================================\r\n    // INPUT STRUCT\r\n    // (fixes stack too deep error)\r\n    // ================================\r\n    struct PatientInput {\r\n        string name;\r\n        string dob;\r\n        string gender;\r\n        string mobile;\r\n        string email;\r\n        string location;\r\n        bool otpVerified;\r\n        string aadharHash;\r\n        string photoHash;\r\n    }\r\n\r\n    // ================================\r\n    // STORAGE\r\n    // ================================\r\n    uint public patientCount = 0;\r\n\r\n    mapping(address => Patient) public patients;\r\n    mapping(address => bool) public isRegistered;\r\n    mapping(address => bool) public isApproved;\r\n    mapping(string => bool) public aadharExists;\r\n\r\n    address[] public pendingPatients;\r\n    address[] public allPatients;\r\n\r\n    // ================================\r\n    // EVENTS\r\n    // ================================\r\n    event PatientRegistered(\r\n        uint patientId,\r\n        string name,\r\n        address walletAddress,\r\n        uint timestamp\r\n    );\r\n\r\n    event PatientApproved(\r\n        address walletAddress,\r\n        string name,\r\n        uint timestamp\r\n    );\r\n\r\n    event PatientRejected(\r\n        address walletAddress,\r\n        string name,\r\n        uint timestamp\r\n    );\r\n\r\n    // ================================\r\n    // MODIFIER\r\n    // ================================\r\n    modifier onlyInsurer() {\r\n        require(\r\n            msg.sender == insurer,\r\n            \"Only insurer can do this\"\r\n        );\r\n        _;\r\n    }\r\n\r\n    // ================================\r\n    // CONSTRUCTOR\r\n    // ================================\r\n    constructor() {\r\n        insurer = msg.sender;\r\n    }\r\n\r\n    // ================================\r\n    // REGISTER PATIENT\r\n    // uses struct input to avoid\r\n    // stack too deep error\r\n    // ================================\r\n    function registerPatient(\r\n        PatientInput memory input\r\n    ) public {\r\n\r\n        // checks\r\n        require(\r\n            !isRegistered[msg.sender],\r\n            \"Patient already registered\"\r\n        );\r\n\r\n        require(\r\n            !aadharExists[input.aadharHash],\r\n            \"Aadhar already registered\"\r\n        );\r\n\r\n        require(\r\n            input.otpVerified == true,\r\n            \"OTP not verified\"\r\n        );\r\n\r\n        require(\r\n            bytes(input.photoHash).length > 0,\r\n            \"Photo not uploaded\"\r\n        );\r\n\r\n        require(\r\n            bytes(input.aadharHash).length > 0,\r\n            \"Aadhar not provided\"\r\n        );\r\n\r\n        // increment count\r\n        patientCount++;\r\n\r\n        // store patient\r\n        patients[msg.sender] = Patient(\r\n            patientCount,\r\n            input.name,\r\n            input.dob,\r\n            input.gender,\r\n            input.mobile,\r\n            input.email,\r\n            input.location,\r\n            input.otpVerified,\r\n            input.aadharHash,\r\n            input.photoHash,\r\n            msg.sender,\r\n            \"Pending\",\r\n            block.timestamp\r\n        );\r\n\r\n        // update mappings\r\n        isRegistered[msg.sender] = true;\r\n        aadharExists[input.aadharHash] = true;\r\n\r\n        // add to lists\r\n        pendingPatients.push(msg.sender);\r\n        allPatients.push(msg.sender);\r\n\r\n        // emit event\r\n        emit PatientRegistered(\r\n            patientCount,\r\n            input.name,\r\n            msg.sender,\r\n            block.timestamp\r\n        );\r\n    }\r\n\r\n    // ================================\r\n    // APPROVE PATIENT\r\n    // only insurer can call\r\n    // ================================\r\n    function approvePatient(\r\n        address _walletAddress\r\n    ) public onlyInsurer {\r\n\r\n        require(\r\n            isRegistered[_walletAddress],\r\n            \"Patient not registered\"\r\n        );\r\n\r\n        require(\r\n            !isApproved[_walletAddress],\r\n            \"Patient already approved\"\r\n        );\r\n\r\n        patients[_walletAddress].status = \"Approved\";\r\n        isApproved[_walletAddress] = true;\r\n\r\n        emit PatientApproved(\r\n            _walletAddress,\r\n            patients[_walletAddress].name,\r\n            block.timestamp\r\n        );\r\n    }\r\n\r\n    // ================================\r\n    // REJECT PATIENT\r\n    // only insurer can call\r\n    // ================================\r\n    function rejectPatient(\r\n        address _walletAddress\r\n    ) public onlyInsurer {\r\n\r\n        require(\r\n            isRegistered[_walletAddress],\r\n            \"Patient not registered\"\r\n        );\r\n\r\n        patients[_walletAddress].status = \"Rejected\";\r\n\r\n        emit PatientRejected(\r\n            _walletAddress,\r\n            patients[_walletAddress].name,\r\n            block.timestamp\r\n        );\r\n    }\r\n\r\n    // ================================\r\n    // GET PATIENT DETAILS\r\n    // ================================\r\n    function getPatient(\r\n        address _walletAddress\r\n    ) public view returns (Patient memory) {\r\n\r\n        require(\r\n            isRegistered[_walletAddress],\r\n            \"Patient not registered\"\r\n        );\r\n\r\n        return patients[_walletAddress];\r\n    }\r\n\r\n    // ================================\r\n    // GET PENDING PATIENTS\r\n    // ================================\r\n    function getPendingPatients()\r\n        public\r\n        view\r\n        returns (address[] memory)\r\n    {\r\n        return pendingPatients;\r\n    }\r\n\r\n    // ================================\r\n    // GET ALL PATIENTS\r\n    // ================================\r\n    function getAllPatients()\r\n        public\r\n        view\r\n        returns (address[] memory)\r\n    {\r\n        return allPatients;\r\n    }\r\n\r\n    // ================================\r\n    // CHECK IF PATIENT APPROVED\r\n    // ================================\r\n    function checkPatientApproved(\r\n        address _walletAddress\r\n    ) public view returns (bool) {\r\n        return isApproved[_walletAddress];\r\n    }\r\n\r\n    // ================================\r\n    // CHECK IF PATIENT REGISTERED\r\n    // ================================\r\n    function checkPatientRegistered(\r\n        address _walletAddress\r\n    ) public view returns (bool) {\r\n        return isRegistered[_walletAddress];\r\n    }\r\n}\r\n",
  "sourcePath": "E:\\medinsure\\contracts\\UserRegistry.sol",
  "compiler": {
    "name": "solc",
    "version": "0.8.19+commit.7dd6d404.Emscripten.clang"
  },
  "schemaVersion": "3.4.16",
  "updatedAt": "2026-02-25T17:11:57.191Z",
  "networkType": "ethereum",
  "devdoc": {
    "kind": "dev",
    "methods": {},
    "version": 1
  },
  "userdoc": {
    "kind": "user",
    "methods": {},
    "version": 1
  }
}